:020000040800F2
:10000000D0270020E102000861A60008119D000829
:1000100059A60008B10E0008F9E30008000000002E
:1000200000000000000000000000000031AC0008EB
:10003000C913000800000000D9A7000819AF000884
:10004000FF020008FF020008FF020008FF0200088C
:10005000FF020008FF020008FF020008FF0200087C
:10006000FF020008FF020008FF020008410F00081D
:10007000510F0008610F0008710F0008810F000880
:10008000910F0008A10F00089909000861140008E9
:10009000FF020008FF020008FF020008FF0200083C
:1000A000FF020008FF020008FF020008FF0200082C
:1000B000FF020008B1B00008FF020008199D000807
:1000C000FF020008FF020008FF020008FF0200080C
:1000D000FF020008B9C30008FF020008D9C30008E6
:1000E000FF020008FF02000800000000FF020008F5
:1000F000FF020008FF020008FF020008FF020008DC
:10010000FF020008FF020008FF020008FF020008CB
:10011000FF020008FF020008FF020008FF020008BB
:10012000FF020008FF020008FF020008FF020008AB
:10013000FF020008FF020008FF020008FF0200089B
:1001400000000000000000000000000000000000AF
:10015000FF020008FF020008FF020008FF0200087B
:10016000FF020008FF020008FF020008FF0200086B
:10017000FF02000869A60008FF0200080000000056
:10018000FF020008FF020008FF02000869B2000831
:10019000FF020008FF020008FF020008FF0200083B
:1001A000FF020008FF020008FF0200080000000034
:1001B000FF020008FF020008FF020008FF0200081B
:1001C000FF020008FF02000800000000000000001D
:1001D0000000000000000000FF0200080000000016
:1001E000000000000000000000000000000000000F
:1001F0000000000000000000FF020008FF020008ED
:10020000FF020008FF02000800000000FF020008D3
:10021000FF020008FF020008FF020008FF020008BA
:10022000FF02000800000000FF02000800000000BC
:10023000FF020008FF02000800000000FF020008A3
:10024000FF020008FF020008FF020008FF0200088A
:10025000FF020008FF020008FF020008FF0200087A
:10026000FF020008FF020008FF020008FF0200086A
:10027000FF020008FF020008FF0200080000000063
:10028000FF020008FF020008FF020008FF0200084A
:1002900000000000FF020008FF020008000000004C
:1002A00000000000FF020008FF02000879B2000809
:1002B000A9C30008FF020008FF020008711400082B
:1002C000FF020008FF020008FF020008DFF80CD060
:1002D00000F04CFA0048004701E40008D027002055
:1002E000074880470748804707480047FEE7FEE782
:1002F000FEE7FEE7FEE7FEE7FEE7FEE7FEE7FEE7D6
:1003000041140008D9AF0008CD0200082DE9F05FC4
:100310000546002092469B46884606468146402474
:100320001BE0284641464746224600F057F8534610
:100330005A46C01A914110D311461846224600F081
:100340003EF82D1A67EB01084F4622460120002196
:1003500000F035F817EB00094E41201EA4F101040E
:10036000DFDC484631462A464346BDE8F09FD2B21C
:1003700001E000F8012B491EFBD270470022F6E78E
:1003800010B513460A4604461946FFF7F0FF20460B
:1003900010BD30B50B46014600202022012409E0A3
:1003A00021FA02F59D4205D303FA02F5491B04FA2E
:1003B00002F52844151EA2F10102F1DC30BD202A0D
:1003C00004DB203A00FA02F1002070479140C2F1AC
:1003D000200320FA03F3194390407047202A04DBDE
:1003E000203A21FA02F00021704721FA02F3D040AE
:1003F000C2F1200291400843194670472DE9FE4F93
:10040000804681EA0300C00F0C46009021F00041B5
:1004100023F00045B8EB0200A94105D24046214631
:1004200090461C460B46024623F00040104347D03E
:10043000270DC7F30A00C3F30A510290401A019036
:1004400040286BDAC3F3130040F4801B00989246F7
:1004500020B10023D2EB030A63EB0B0B0198594642
:10046000C0F140025046FFF7AAFF06460D4650462F
:100470005946019A00F08CF910EB08006141002404
:1004800087EA115284EAE7731A4340D0009A62B3B4
:10049000019A012A4FEA075215DC001B61EB0201A9
:1004A0004FF0004202EA0752CDE90042001C41F53C
:1004B000801132462B4600F08CF903B0BDE8F08F76
:1004C00040462146F9E7001B61EB0201001C41F5A3
:1004D000801300185B412018A2F5001747EB0301B9
:1004E00040EAD570B6196D4111E06D084FEA360645
:1004F00045EAC0754FEA0752001B61EB0201001C80
:1005000041F5801149084FEA300000195141324647
:100510002B4603B0BDE8F04F00F04CB90098012223
:1005200040000023D0EB020263EBE0730098214609
:100530004FEAE074B8EB000061EB0401E9E783F0F7
:1005400000435BE781F0004158E72DE9FE4F81EA67
:10055000030404F0004421F0004100944FF0000B2C
:1005600023F0004350EA01045ED052EA03045BD05A
:10057000C3F30A54C1F30A552C44A4F2F334019492
:10058000A0FB0254C1F3130141F48011C3F3130320
:1005900043F4801301FB024400FB034E840A970AD4
:1005A00044EA815447EA8357A4FB076802958D0A01
:1005B00005FB07854FEA932C04FB0C542705029D8D
:1005C0004FEA065847EA1637B5EB08056EEB070CFD
:1005D000870E920E47EA811742EA8312A7FB0201B7
:1005E000B6EB0B0164EB00042B0D43EA0C335E18F1
:1005F00044EB1C50DA465146E7FB0201C5F31304F5
:100600004FEA0B3343EA14534FEA0432019C43EAA6
:100610000603A4F10C040294009CCDE900B400F0A0
:10062000D8F803B0BDE8F08F00200146F9E72DE9C6
:10063000F04D81EA030404F0004B21F0004514461C
:100640004FF0000A23F0004150EA050220D054EA9E
:1006500001021DD0C5F30A570246C5F31303C1F3C7
:100660001300C1F30A5640F4801543F48013A7EB3E
:100670000608101BD64608F2FD3873EB050002D3BE
:1006800008F1010801E092185B41B8F1000F03DAAC
:1006900000200146BDE8F08D00204FF48011064691
:1006A00084460EE0171B73EB050705D3121B63EBA3
:1006B000050306434CEA010C49084FEA3000921842
:1006C0005B4150EA0107EDD152EA030012D082EA01
:1006D000040083EA0501084305D0101BAB4106D294
:1006E0000122002306E000224FF0004302E06FF0F9
:1006F000010253101AEB06004CEB085110EB0A00F4
:1007000041EB0B01BDE8F04D00F054B8C1F30A52C3
:10071000C1F3130140F2FF3341F480119A4202DA2F
:1007200000200146704740F233439A42A2F233421E
:1007300002DC5242FFF752BEFFF741BE30B5041E45
:1007400071F1000404DB4FF00044404264EB01010E
:10075000141E73F1000405DB1C464FF000435242A7
:1007600063EB0403994208BF904230BD064C074D2D
:1007700006E0E06840F0010394E807009847103471
:10078000AC42F6D3FFF7A6FD24F3000864F300089B
:10079000202A06DBCB17203A41FA02F043EAE07345
:1007A00006E041FA02F3D040C2F120029140084332
:1007B0001946704710B5141E73F1000408DA401C86
:1007C00041F1000192185B411A4301D120F0010070
:1007D00010BD2DE9F04D92469B4611B1B1FA81F260
:1007E00002E0B0FA80F220329046FFF7E8FD0446BE
:1007F0000F4640EA0A0041EA0B0153465A460843B5
:1008000013D0114653EA010019D0C8F140025046F6
:10081000FFF7E4FD05460E46504659464246FFF7AF
:10082000CEFD084305D0012004E020463946BDE84E
:10083000F08D0020054346EAE0762C4337430A98C2
:100840006305E40AA0EB08000022FD0A44EA4754CD
:100850000A3002D500200146E9E701051019694177
:10086000DDE9084500196941BDE8F04DA2E730B562
:100870008C1810F8012B12F00F0301D110F8013B76
:10088000120906D110F8012B03E010F8015B01F802
:10089000015B5B1EF9D101E001F8013B521EFBD167
:1008A000A142E6D3002030BD10B50446006842F2F4
:1008B000001140F48070C4F20201884204D142F277
:1008C0000830C4F2020003E046F20830C5F6020028
:1008D000006810F4403F0FD006F01EFF6168B1F5CC
:1008E000803F05D0B1F5403F21D0B1F5003F1FD189
:1008F000090CB0FBF1F01BE04FF40020002105F0E3
:1009000037FF6168A1F580224FEAB2420A2A0FD868
:10091000DFE802F0060606060606383A3C3E4000CE
:100920006FF0010202EA5141B0FBF1F000E08008F3
:100930004BF62141C0F2BE01884205D8206881688B
:1009400021F44071816010BD47F64101C0F27D1174
:10095000884206D820680122816862F309218160FB
:1009600010BD21684FF28102C0F2FA2290428868DD
:1009700004D8022262F30920886010BD40F4407060
:10098000886010BD0009D3E74009D1E78009CFE7AF
:10099000C009CDE7000ACBE740F6EC20C2F20040E8
:1009A00001F056BB000000002DE9F04F8DB040F67D
:1009B000D43040F20F41C2F20040C4F2020100689C
:1009C000884210DC6F21C4F20201884220DC3F2102
:1009D000C4F20201884236DC1021C4F202018842CE
:1009E00053D028214EE040F26F41C4F20201884208
:1009F0001ADC40F23F41C4F2020188422ADC40F294
:100A00001041C4F2020188423FD040F2284139E04F
:100A10009F21C4F20201884225DC7021C4F2020148
:100A2000884232D088212DE040F29F41C4F2020179
:100A300088421FDC40F27041C4F20201884224D097
:100A400040F288411EE04021C4F2020188421CD0DD
:100A5000582117E040F24041C4F20201884214D00C
:100A600040F258410EE0A021C4F2020188420CD0AD
:100A7000B82107E040F2B841C4F20201884204D034
:100A800040F2A041C4F202018842406840F6943C22
:100A9000C0F14000C2F2000C5FFA80F940F6A024D9
:100AA00040F2C00AB9F1080FC2F20044C2F2000AD3
:100AB0008CF80000C0F0B2816FF00501002551FAFA
:100AC00080F10B916FF007014FF0000B51FA80FE9F
:100AD000CDF830E008E000BF8AF80B50F3450BF189
:100AE000010BB14600F09A81A9F10106A05D0A2828
:100AF000F2D109EB040818F8020C0D28ECD19CF88F
:100B000000000C284FF001008AF80B0066D118F89D
:100B1000070C002301218AF80B1059288AF8243089
:100B200029D118F80C0C582825D140F6E027A4F15B
:100B300008000021C2F2004710F8092001387A5459
:100B400001310429F8D13868CAF81800E01E0021E4
:100B500010F8092001387A5401310429F8D140F203
:100B60004A0097ED000AC2F20040B1EE400A8AED59
:100B7000070A3B60C3729AED060A9AED071A40F61F
:100B80009530B7EEC00AB7EEC11A4FF48051C2F2E9
:100B900000000FF2F4228DED000B8DED021B2746B5
:100BA00055460DF0A5FE40F6943C0128C2F2000C1B
:100BB000DDF830E012DB82B241F2882040F6953158
:100BC000C2F20040C2F2000109F046F840F6943C3F
:100BD000AA46DDF830E03C46C2F2000C9CF800006A
:100BE000002508287FF47AAFA9F10800205CA0F165
:100BF000410123293FF672AF0B9AA2EB0B02A0181A
:100C0000DFE811F0250072007B00330024003C0077
:100C100024002400240024002400240024002400B4
:100C20002400600024008E00A200B80024002400EC
:100C3000240024002400C5002400240024002400F3
:100C400024002400240024002400690046E718F84A
:100C5000070C552800F0A48043287FF43FAF012003
:100C60008AF821008AF8235038E718F8070C522830
:100C70007FF434AF01208AF82C002FE718F8071C06
:100C8000423911293FF62AAFDFE811F013001200B4
:100C900012001200120012001200120012001200C4
:100CA000B5001200B700120012001200BB00C40011
:100CB00014E740F28C328188C2F200020068CAF860
:100CC00084002AE018F8070C42287FF407AF0120BF
:100CD0008AF8290002E718F8070C72287FF4FEAEA4
:100CE00001208AF82D00F9E618F8070C4C287FF44B
:100CF000F5AE01208AF83600F0E618F8071C4C29FA
:100D000000F0598052297FF4E9AE40F28C3281889C
:100D1000C2F200020068CAF8880091801060DDE627
:100D200018F8070C44380E283FF6D8AEDFE800F07C
:100D3000094F08080808080853080808080855005B
:100D4000CCE68AF83650C9E618F8070C4338112863
:100D50003FF6C4AEDFE800F00A0943090947090974
:100D60000909090909090909094BB7E601208AF8A7
:100D70002700B3E618F8070C5A2822D043287FF43E
:100D8000ADAE01208AF82400CAE90655A6E618F897
:100D9000070C45287FF4A2AE01208AF83C009DE6AE
:100DA0009AF82500B0FA80F040098AF82500012061
:100DB0008AF82B0092E601208AF820008AF8235056
:100DC0008CE6AAF8205001208AF8230086E601204C
:100DD0008AF8280082E6032014E0042012E00120B3
:100DE0008AF834007AE601208AF8260076E60120A7
:100DF0008AF8220072E6012004E001208AF835001A
:100E00006CE60220CAF83000DAF838000130CAF87F
:100E1000380063E601208AF873005FE69AF8200044
:100E200023789AF821109AED071A9AED060A9AF893
:100E300026709AF82320B7EEC00A9AF82260B7EE1F
:100E4000C11A8DE8470040F6953011A2C2F20000A9
:100E50004FF480518DED060B8DED081B04970DF0BE
:100E600047FD01280DDB82B241F2882040F6953122
:100E7000C2F20040C2F200010DB0BDE8F04F08F030
:100E8000EBBE0DB0BDE8F08F25662025660D0A008B
:100E900025642025642025642025642025642025E0
:100EA000642025662025660D0A0000000000000071
:100EB000FEE7000000000000002070470000000076
:100EC000002070470000000010B541F6EC3440F2FD
:100ED0009431C2F20004C2F20001002220460BF05D
:100EE000C3FC40F2A0212046C2F200410BF0ACFC52
:100EF000002010BD00000000B0B541F6EC350C46F6
:100F0000C2F2000541F25441C2F2004128460BF002
:100F10009BFC40F25011C2F20001087042F2B8305E
:100F2000C2F200002168016028460BF069FC002035
:100F3000B0BD00000000000000207047000000006D
:100F400041F64070C2F2000001F02EBF0000000028
:100F500040F64C40C2F2004001F026BF0000000005
:100F600040F65C30C2F2004001F01EBF00000000FD
:100F700041F6C860C2F2000001F016BF0000000098
:100F800041F6B870C2F2000001F00EBF0000000090
:100F900040F6D430C2F2004001F006BF000000006D
:100FA00042F23000C2F2000001F0FEBE000000007C
:100FB00040F20F42D0F800C0C4F20202944510DCA7
:100FC0006F22C4F20202944520DC3F22C4F20202E6
:100FD000944536DC1022C4F20202944554D02822F3
:100FE0004EE040F26F42C4F2020294451ADC40F235
:100FF0003F42C4F2020294452ADC40F21042C4F29D
:101000000202944540D040F2284239E09F22C4F2C7
:101010000202944525DC7022C4F20202944533D0CA
:1010200088222DE040F29F42C4F2020294451FDC68
:1010300040F27042C4F20202944525D040F2884248
:101040001EE04022C4F2020294451DD0582217E04F
:1010500040F24042C4F20202944515D040F2584298
:101060000EE0A022C4F2020294450DD0B82207E09F
:1010700040F2B842C4F20202944505D040F2A042C8
:10108000C4F20202944517D10CF0F8024AF6AB23E1
:10109000103ACAF6AA23A2FB033109A35F2AC1F3BF
:1010A00002115B5C40F2FF312CEA0101C36588BF8D
:1010B00004318165084670472CF0FF01F9E700BF55
:1010C000000610160006101670B540F26F44D0F8F6
:1010D00000C0C4F20204D0F858E0A44519DC9F25F2
:1010E000C4F20205AC4531DC5725C4F20205AC451B
:1010F00056DC1025C4F20205AC4500F0928028258C
:10110000C4F20205AC4500F08C804025C4F2020513
:1011100084E045F22F45C5F60205AC452BDC40F2D4
:10112000B745C4F20205AC4548DC40F27045C4F254
:101130000205AC4575D040F28845C4F20205AC45C5
:101140006FD040F2A045C4F2020567E040F22745A7
:10115000C4F20205AC4540DCA025C4F20205AC4552
:101160005FD0B825C4F20205AC455AD040F2104514
:10117000C4F2020552E045F26B45C5F60205AC45E6
:101180003CDC45F23045C5F60205AC4549D045F298
:101190004445C5F60205AC4543D045F258453BE011
:1011A0005825C4F20205AC453BD07025C4F20205B7
:1011B000AC4536D08825C4F202052FE040F2B84590
:1011C000C4F20205AC452CD045F20845C5F602052F
:1011D000AC4526D045F21C451EE040F22845C4F23D
:1011E0000205AC451DD040F24045C4F20205AC45B5
:1011F00017D040F25845C4F202050FE045F26C45A5
:10120000C5F60205AC450CD045F29445C5F602057D
:10121000AC4506D045F28045C5F60205AC4540F028
:10122000D180456EC66E002E866E6E601CBFD0E902
:101230001C566E60A44515DC9F24C4F20204A4452C
:101240002BDC5724C4F20204A4454EDC1024C4F263
:101250000204A44576D02824C4F20204A44571D027
:1012600040246BE045F22F44C5F60204A44527DC78
:1012700040F2B744C4F20204A44542DC40F2704498
:10128000C4F20204A4455DD040F28844C4F20204D2
:10129000A44557D040F2A04450E040F22744C4F2A5
:1012A0000204A4453CDCA024C4F20204A44549D0B5
:1012B000B824C4F20204A44544D040F210443DE0F6
:1012C00045F26B44C5F60204A44553DC45F23044B4
:1012D000C5F60204A4455FD045F24444C5F60204B5
:1012E000A44559D045F2584452E05824C4F20204AF
:1012F000A44527D07024C4F20204A44522D0882437
:101300001CE040F2B844C4F20204A4451AD045F2ED
:101310000844C5F60204A4453ED045F21C4437E01B
:1013200040F22844C4F20204A4450BD040F24044E9
:10133000C4F20204A44505D040F25844C4F20204A9
:10134000A4453FD18468C06D00F01F003F2505FA19
:1013500000F0CEF80800DCF80000402C20F48020DB
:10136000CCF80000CCF8043023D0CCF80810CCF82E
:101370000C2070BD45F26C44C5F60204A4450BD0A8
:1013800045F28044C5F60204A44505D045F29444D4
:10139000C5F60204A44515D1C46D806804F01F048D
:1013A0000125402805FA04F4CEF80440CCF80430B6
:1013B00004D1CCF80820CCF80C1070BDCCF8081083
:1013C000CCF80C2070BD0000704700000000000049
:1013D0002DE9F0438BB040F2C0078146C2F200070E
:1013E0000DF108080E462421786E1C4601307866FF
:1013F00040461546FEF7C2FFA819022100F54070CD
:10140000029000200990CDE90300CDE90510CDE957
:10141000070001200A908DF806000DF106024846EB
:1014200041468DF8074002F03BFF0BB0BDE8F0836A
:10143000EFF3108072B600BFFEE70000000000006E
:1014400044F60C00C5F60200016841F0020101609B
:1014500050F8081C8904FBD570470000000000000C
:1014600042F2A800C2F2000003F096B800000000AB
:1014700042F24810C2F2000003F08EB800000000F3
:10148000F0B5D1E900C4D1F808E00D692CB14EEAFD
:101490000C04254345F0804C03E045EA8C4444EAC3
:1014A0000E0C856ED0F88470D1E907466B438D69C8
:1014B00044EA0660D1F814E0CC68054307EB8300EA
:1014C00045EA0E0647F823C046EA04434360CB686A
:1014D000002B08BFF0BD4FF2043C0830013200235E
:1014E000C0F6000CD71857F8017CC750CF680433FA
:1014F0001CF80770BB42F5D3F0BD000000000000EF
:10150000F0B591B042F2A8040025C2F20004052013
:10151000CDE90C0509A92046099502260B960E95E2
:101520000A9502F0F5FE022102220123204601273E
:10153000009702F031FF204603F0D6FC0121002283
:10154000204602F071FE42F248140620C2F2000466
:1015500001A9CDE90405204601950396069502955B
:1015600002F0D6FE0221022201232046009702F05B
:1015700013FF204603F0B8FC10210022204602F0A1
:1015800053FE11B0F0BD000080B50B78A3F120022E
:101590007F2A00F2988091F801C091F802E0C978A2
:1015A000DFE812F080009B00AC00BD00C900D50050
:1015B000E100ED00F90005013201320111013201B3
:1015C0003201320132013201320132013201320183
:1015D0003201320132013201320132013201320173
:1015E0003201320132013201320132013201320163
:1015F0003201320132013201320132013201320153
:10160000320132011D013201320132013201320157
:101610003201320132013201320132013201320132
:101620003201320132013201320132013201320122
:101630003201320132013201320132013201320112
:101640003201320132013201320132013201320102
:1016500032013201320132013201320132013201F2
:1016600032013201320132013201320132013201E2
:1016700032013201320132013201320132013201D2
:1016800032013201320132013201320132013201C2
:1016900032013201320132013201320132013201B2
:1016A00032012C01090641EA0E4141EA0C210029D0
:1016B000C1F3162248BF524200EE102AB8EEC00A0B
:1016C00080ED060A80BDEE2B00F09F80FF2B18BF37
:1016D00080BD012180F8411080BD090641EA0E411C
:1016E00041EA0C210029C1F3162248BF524200EE04
:1016F000102AB8EEC00A80ED000A80BD090641EA52
:101700000E4141EA0C210029C1F3162248BF524282
:1017100000EE102AB8EEC00A80ED010A80BD09066D
:1017200041EA0E4141EA0C210029C1F3162248BFCB
:101730005242026380BD090641EA0E4141EA0C2192
:101740000029C1F3162248BF5242826280BD0906B9
:1017500041EA0E4141EA0C210029C1F3162248BF9B
:101760005242C26280BD090641EA0E4141EA0C21A3
:101770000029C1F3162248BF5242C26180BD09064A
:1017800041EA0E4141EA0C210029C1F3162248BF6B
:101790005242026280BD090641EA0E4141EA0C2133
:1017A0000029C1F3162248BF5242426380BD090698
:1017B00041EA0E4141EA0C210029C1F3162248BF3B
:1017C0005242826380BD090641EA0E4141EA0C2182
:1017D0000029C1F3162248BF5242426280BD090669
:1017E000012241EA0E4180F8422041EA0C21002901
:1017F000C1F3162348BF5B42C36380BD80F844C079
:1018000080F845E080F8461080BD012180F8401046
:1018100080BD0000000000000A7802F0F003F02B09
:1018200018BF704791F902305FFA83FC002B4FEA32
:101830000C3309D491F801C002F00F02BAEE040A89
:1018400042EA0C121A430AE091F801C003F4FE23A5
:10185000B2EE040A02F00F0243EA0C131A4401EE3E
:10186000102A4FF4FE43B8EEC11A81EE000A80ED53
:10187000010A91F904205FFA82FCB2F1FF3F03EA0A
:101880000C2309A2C8BF4FEA0C23C978C8BF043291
:10189000194400EE101A92ED001AB8EEC00A80EE5C
:1018A000010A80ED000A70470000C8C20000C8426B
:1018B00070470000000000007047000000000000BA
:1018C00070470000000000007047000000000000AA
:1018D000704700000000000070B582B090F85C20F6
:1018E000012A01D102213FE042F20835012280F8AD
:1018F0005C2000230193C4F202050093A5F5427415
:101900000368A34228D14FF6006ECFF6FF7E55F84C
:101910000E409A68224352071ED4D1F800C02A68AC
:10192000BCF1000F22F4404421D043F4807242F213
:101930000013C4F202034E689A4244EA06022A6087
:1019400029D14FF60052CFF6FF72AA5855F80E3043
:101950001343DA073DD125E0016E41F02001016615
:101960000121002280F85C20084602B070BD42F2DE
:10197000001243F48071C4F202022C6091421AD129
:101980004FF60051CFF6FF71695855F80E201143FC
:10199000C9071ED116E046F20802C5F60202136816
:1019A000DA0716D12A6840F61F739A4389681143F3
:1019B00041EA0C010AE046F20801C5F60201096895
:1019C000C90706D1296840F61F729143296000219A
:1019D000C7E70021C5E700002DE9F04381B00022F0
:1019E000009290F85C20012A01D10221D0E2026825
:1019F000012380F85C3093685B0700F1C18246F2F6
:101A0000083C0B68C5F6020C4FF6FF78002BC0F2BD
:101A10000F08ACF5427E12D4724510D093FAA3F5AC
:101A200013EA080FB5FA85F54FF0010608BF9D0EC1
:101A300005F01F0506FA05F5D6693543D5614D68F1
:101A40001F27C3F38463C5F3012605F01F05AF40CC
:101A500002EB8606AB40346BBC432343336393688D
:101A6000946803F0040304F008041B1940F0088193
:101A70000B6807268D687245C3F34064C3F30453B3
:101A800002EB840406FA03F6676905FA03F327EA12
:101A9000060643EA060363610FD041F20003C5F670
:101AA00000431B6803F07043B3F1805F14D14B69AE
:101AB000D4680E2505EA54041AE04FF604544B6925
:101AC000CFF6FF7406255CF8044005EA940403FA97
:101AD00004F94FF000430DE0D4684B69D568E40683
:101AE0004FEA550502D405F00E0401E005F00804A4
:101AF000A34099460F69042F25D1724553D0136E28
:101B00000C6803F0F845A3069D4203D1146E24F03F
:101B100000441466546E04F0F8449C4203D1546EA1
:101B200024F000445466946E04F0F8449C4203D1BF
:101B3000946E24F000449466D46E04F0F8449C4201
:101B400000F082809CE002F160060C6804F0F8442A
:101B5000724556F8275005F00045254408BF49EA6C
:101B6000040543EA050346F827300B6971D091F864
:101B700021400D7E56F8237027F00047012C08BF46
:101B800007F100476C1EB4FA84F446F82370630929
:101B90000C69DB02156904F01F0425F4F045A3402D
:101BA0002B4313616CE04FF65853CFF6FF735CF88C
:101BB0000330136E0C68C3F3846314EA080F94FABD
:101BC000A4F5B5FA85F508BFC4F38465AB4203D12B
:101BD000136E23F000431366536E536E0C6814EAC1
:101BE000080F94FAA4F5B5FA85F508BFC4F3846527
:101BF000C3F38463AB4203D1536E23F000435366B7
:101C0000936E936E0C6814EA080F94FAA4F5B5FA73
:101C100085F508BFC4F38465C3F38463AB4203D185
:101C2000936E23F000439366D36ED36E0C6814EA70
:101C3000080F94FAA4F5B5FA85F508BFC4F38465D6
:101C4000C3F38463AB421BD1D36E23F00043D3664E
:101C500016E0ACF52A72CC6952F8235025F0807555
:101C60002C4342F823400B6991F8204052F823504E
:101C7000012C25F0007508BF05F1007542F82350CE
:101C800002689368DB0740F02D8172450B68CD68D0
:101C90000DD005F01804D2F8C01028FA04F403EAB5
:101CA0000806B1431C402143C2F8C01010E04FF6B3
:101CB000A85105F01806CFF6FF7128FA06F603EAD8
:101CC00008071E405CF80140BC4334434CF8014017
:101CD0000021C4F2527101F52D04A54240F0FF80AD
:101CE00046F20004C5F60204A2422BD042F20014D0
:101CF000C4F20204A2423AD042F20004C4F2020446
:101D0000A2424CD11F24C1F2F044A34234DD40F280
:101D1000FF74C2F63064A3425BDD40F60004C2F6F5
:101D20003064A34200F0AC8041F20004C3F26024AE
:101D3000A34200F0A0800024C4F22134A34200F0AA
:101D4000B980A2E01F21C1F2F0418B4229DC0721BA
:101D5000C0F690418B425EDC0221C0F230418B42E2
:101D600057D00421C0F660018B4214D097E01F21A8
:101D7000C1F2F0418B4226DC0721C0F690418B4234
:101D800037DC0221C0F230418B4242D00421C0F640
:101D900060018B4279D14021C1F620118AE00021F7
:101DA00088E040F2FF71C2F630618B4246DC2021B0
:101DB000C1F2F0418B4227D040F20041C2F600212F
:101DC0008B4211D06BE040F2FF71C2F630618B4262
:101DD00045DC2021C1F2F0418B4215D040F2004198
:101DE000C2F600218B4250D140F60001C2F63061AC
:101DF00060E00821C0F690418B421BD01021C1F257
:101E0000C0018B4211D040E040F20021C2F2B0513B
:101E100050E001214EE00821C0F690418B4209D0EC
:101E20001021C1F2C0018B4239D140F20011C2F23F
:101E300080113FE08021C1F650513BE040F60001A7
:101E4000C2F630618B421BD042F20001C3F29061B6
:101E50008B4224D144F20001C3F6C0212AE040F6AF
:101E60000001C2F630618B420AD041F20001C3F298
:101E700060218B4209D142F20001C3F2906119E066
:101E800041F20001C3F2602114E000240021C4F6F5
:101E90008434A34204BF0021C4F6B8710AE044F2BE
:101EA00000040021C3F6C024A34204BF48F200018D
:101EB000C3F6F061724512D091FAA1F44FF6C13524
:101EC000B4FA84F4C0F20A05294208BF8C0E04F06B
:101ED0001F01012404FA01F1D4692143D161B3F156
:101EE000FF3F01DD002150E042F2000142F2001606
:101EF000C4F20201C4F2020601F5807401F54275D4
:101F0000A242644608BF2C468A4208BF2C4642F4CF
:101F10008075B54225682BD18C68D1F80811214312
:101F2000C9072DD1002105F0E074CCF252718B422B
:101F300008BF15F400012FD00021CCF221318B42D3
:101F400008BF15F0807150D00021CCF684318B424F
:101F50004FF0000119D115F4800308BF724514D168
:101F6000DCF8001021F0E071214341F4800146E0EB
:101F70004FF60051CFF6FF715CF80110C907D1D0C0
:101F8000016E41F0200101660121002280F85C20F1
:101F9000084601B0BDE8F0837245A3D1DCF800101B
:101FA00042F6635221F0E071C0F23E52214341F407
:101FB0000001CCF8001040F20401C2F200010968EF
:101FC0008909A1FB02129109022202EB4101009151
:101FD000009900293FF486AF0099013900910099DA
:101FE00000294FF00001F7D1CFE772457FF47AAFB7
:101FF000DCF8001021F0E071214341F08071CCF851
:1020000000106FE70000000080B542F20001006898
:10201000C4F20201884218BF80BD40F6EC20C2F233
:10202000004000F011F800EE100A42F2B430C2F2A3
:102030000000B8EE400A80ED000A80BD00000000FC
:1020400070470000000000000068006C704700004E
:102050002DE9F04F81B046F2083942F20002C5F690
:102060000209C4F202020446006802F5807A02F511
:10207000427B4946504508BF5946904208BF5946E1
:1020800006684568B2070F680FD515F002000CD03E
:10209000206EC00603D4206E40F400602066204607
:1020A000FFF706FC206802210160700707F01F0897
:1020B00002D515F0040004D130074DD515F0080005
:1020C0004AD0204650F8601FC90603D4016841F485
:1020D000007101602168CA6812F4406F36D142F283
:1020E00000030A46C4F20203514508BF1A46B8F17C
:1020F000090F134608BF0B46B8F1050F08BF0B4682
:10210000B8F1000F08BF0B468A4208BF1346DA68D1
:1021100092041BD40A68120718D58A6852070BD498
:102120004A6822F00C024A60016821F48071016063
:102130000168C90406D509E0206E40F01000206651
:1021400004F16400016841F0010101602046FFF7DD
:102150005BFF20680C210160B00602D515F020005D
:1021600004D1700630D515F040002DD0204650F82F
:10217000601FC90603D4016841F400510160216861
:1021800042F200020B46C4F20202514508BF134658
:10219000B8F1070F1A4608BF0A46B8F1060F08BF84
:1021A0000A46B8F1000F08BF0A468B4208BF1A461C
:1021B000CB6C13F4C07FCB68D26876D02046FFF793
:1021C0007BFB20686021016030060CD515F0800093
:1021D00009D0206E40F480302066204600F0D8F907
:1021E000206880210160F0050DD515F480700AD0BB
:1021F000206E40F4003020662046FFF765FB206823
:102200004FF480710160B0050DD515F400700AD04F
:10221000206E40F4802020662046FFF759FB20689E
:102220004FF400710160F00625D515F0100022D0A2
:10223000E06B90B1B8F1000F206857D042F2000176
:10224000504508BFD946C4F20201884208BFD946AA
:10225000D9F8000010F4404F0AD0206E40F480609E
:102260002066606E40F0020060662046FFF7E8FEE0
:10227000206810210160700514D515F4806011D01C
:102280002068216E41F480412166616E41F00801B1
:1022900061664FF480610160204601B0BDE8F04FF7
:1022A000FFF70EBB01B0BDE8F08F970106D503F430
:1022B000406302F40057DB197FF480AF0B685B06C4
:1022C0007FF57CAF12F400127FF478AF8A681207B2
:1022D00010D44A6822F060024A60016821F48051FB
:1022E00001600168C9053FF569AF09E0C068800772
:1022F000B3D1BDE7206E40F01000206604F1640009
:10230000016841F00101016058E700000000000091
:10231000B0B582B0044600284FF00000019040D0D4
:10232000206E30B9204600F037F90020606684F84E
:102330005C002068816889004FF6C071C5F6FF71A6
:1023400002D582680A4082608268D2001CD482680A
:1023500001F18051114042F6635241F08051816099
:1023600040F20401C0F23E52C2F20001096889093C
:10237000A1FB0212012101EB921100BF0191019911
:1023800011B101990139F9E78168C9000BD4216EB7
:10239000012541F010012166616E41F00101616685
:1023A00002E00125EEE000258168226E02F01002B5
:1023B00001F004018918216E36D121F4817146F2B1
:1023C000000C023121668168C5F6020CC90722D1D2
:1023D00042F2001240F48071C4F20202914242F2D1
:1023E0000001C4F202012DD18A68D1F808311A43E4
:1023F000D20710D101F580729042624608BF0A46AA
:10240000884208BF02466168D2F8083323F47C137F
:102410001943C2F80813617EE26B604542EA41321B
:1024200006D0A16811431BE041F010000125A8E08F
:10243000A168E36808290AD00C290AD01C290AD10E
:1024400010210BE0DCF80820D207D3D0E3E700210D
:1024500004E0082102E0182918BF002119431143A4
:1024600094F82020012A41EA024206D1616A002341
:10247000CFF6FE7303EB41410A43A16A21B101F497
:102480007871E36A19430A43604508D04CF20303AC
:10249000C168CFF6F07319401143C1600EE044F2F9
:1024A0000703DCF80C10CFF6F07319401143C1603C
:1024B0000169626B21F040611143016181688268AA
:1024C00001F0040102F0080289184BD1217E604519
:1024D0004FEA813102D0226B114303E094F8382097
:1024E00041EA4201C26844F203039A431143C160C6
:1024F00094F84410012917D14FF61E016045CFF61C
:10250000004115D0026902EA010E0121D4E912232B
:10251000CFF6FF7101EB024143EA0E02236D114336
:10252000626D1943114310E0016921F001010CE0D3
:10253000DCF810201140D4E912231143226D194315
:10254000636D1143194341F0010101616045016967
:10255000226C21F0704141EA0201016102D0204663
:10256000FEF7A2F920682169026B012922F00F0110
:1025700002D1E269013A114301630121206E61F346
:1025800001002066284602B0B0BD00000000000037
:10259000704700000000000080B586B042F20002E3
:1025A0000068C4F20202002190420591CDE90311B6
:1025B0000291019101D006B080BD44F2D840C5F629
:1025C0000200026842F020020260026802F020026B
:1025D0000092009A826842F001028260806800F0F6
:1025E000010000900098802001900320CDE90201B5
:1025F000002001A9C5F6020002F0BAFC1220002159
:10260000002202F05DFF122002F04AFF06B080BDFA
:102610002DE9F041044602F083FD14B3054694F819
:102620003500022820D140F20F462768C4F2020686
:1026300040F26F48B7426FF00E00C4F2020817DC98
:102640006F21C4F202018F4223DC3F21C4F2020158
:102650008F4239DC1021C4F202018F4258D0282168
:1026600051E00120BDE8F08180206065012040E25A
:1026700047451ADC40F23F41C4F202018F422ADC96
:1026800040F21041C4F202018F4241D040F2284191
:1026900039E09F21C4F202018F4225DC7021C4F28F
:1026A00002018F4234D088212DE040F29F41C4F2D4
:1026B00002018F421FDC40F27041C4F202018F42DE
:1026C00026D040F288411EE04021C4F202018F4230
:1026D0001ED0582117E040F24041C4F202018F425F
:1026E00016D040F258410EE0A021C4F202018F4200
:1026F0000ED0B82107E040F2B841C4F202018F4287
:1027000006D040F2A041C4F202018F42394607D1FF
:102710003946386820F01E0041F8140B6FF0800035
:102720000A68474500EA0200086019DC9F20C4F2ED
:102730000200874231DC5720C4F20200874256DC97
:102740001020C4F20200874200F091802820C4F2D9
:102750000200874200F08B804020C4F2020084E037
:1027600045F22F40C5F6020087422BDC40F2B7400D
:10277000C4F20200874248DC40F27040C4F202001A
:10278000874274D040F28840C4F2020087426ED083
:1027900040F2A040C4F2020067E040F22740C4F2D9
:1027A0000200874240DCA020C4F2020087425ED0D3
:1027B000B820C4F20200874259D040F21040C4F25F
:1027C000020052E045F26B40C5F6020087423CDC55
:1027D00045F23040C5F60200874248D045F24440F9
:1027E000C5F60200874242D045F258403BE05820EF
:1027F000C4F2020087423AD07020C4F2020087423D
:1028000035D08820C4F202002FE040F2B840C4F274
:10281000020087422BD045F20840C5F602008742ED
:1028200025D045F21C401EE040F22840C4F20200D0
:1028300087421CD040F24040C4F20200874216D0CA
:1028400040F25840C4F202000FE045F26C40C5F679
:10285000020087420BD045F29440C5F60200874241
:1028600005D045F28040C5F60200874204D1206EB3
:10287000016821F480710160386820F0010038603F
:102880003868C0070BD002F04BFC401B0628F7D37A
:1028900020206065032084F83500012029E12068AC
:1028A000B04210DC6F21C4F2020188421CDC3F21DF
:1028B000C4F20201884232DC1021C4F202018842D3
:1028C00050D028214AE040451ADC40F23F41C4F292
:1028D000020188422ADC40F21041C4F2020188421F
:1028E00040D040F2284139E09F21C4F202018842E1
:1028F00025DC7021C4F20201884233D088212DE00A
:1029000040F29F41C4F2020188421FDC40F2704154
:10291000C4F20201884225D040F288411EE04021E5
:10292000C4F2020188421DD0582117E040F2404114
:10293000C4F20201884215D040F258410EE0A021B5
:10294000C4F2020188420DD0B82107E040F2B8413C
:10295000C4F20201884205D040F2A041C4F2020153
:10296000884259D1D4E9161202F01F023F2303FA1C
:1029700002F28A60404559DC9F21C4F2020188427C
:1029800014DC5721C4F20201884226DC1021C4F273
:102990000201884200F09D802821C4F20201884291
:1029A00000F097804021C4F2020190E040F22741FC
:1029B000C4F2020188421EDCA021C4F20201884256
:1029C00000F08780B821C4F20201884200F08180C3
:1029D00040F21041C4F2020179E05821C4F2020130
:1029E000884276D07021C4F20201884271D08821D9
:1029F000C4F202016BE040F22841C4F202018842B5
:102A000067D040F24041C4F20201884261D040F2F6
:102A10005841C4F202015AE0D4E9161202F01F0232
:102A2000012303FA02F24A604045A5DD45F22F4139
:102A3000C5F60201884216DC40F2B741C4F2020139
:102A4000884225DC40F27041C4F20201884240D045
:102A500040F28841C4F2020188423AD040F2A041DB
:102A6000C4F2020133E045F26B41C5F6020188422F
:102A70001DDC45F23041C5F60201884229D045F2FD
:102A80004441C5F60201884223D045F258411CE07A
:102A900040F2B841C4F2020188421AD045F208411E
:102AA000C5F60201884214D045F21C410DE045F202
:102AB0006C41C5F6020188420BD045F29441C5F63F
:102AC0000201884205D045F28041C5F602018842E4
:102AD0000BD1616EA26EE06E4A6030B1016821F4E4
:102AE00080710160D4E91C014160012084F8350047
:102AF0000020002184F83410BDE8F08100000000BF
:102B000080B5D8B190F83510022919D140F20F42A2
:102B10000168C4F20202914216DC6F23C4F2020380
:102B2000994226DC3F23C4F2020399423CDC102385
:102B3000C4F2020399425AD0282354E0012080BDF8
:102B400080214165012080BD40F26F43C4F2020341
:102B500099421ADC40F23F43C4F2020399422ADC54
:102B600040F21043C4F20203994240D040F228439D
:102B700039E09F23C4F20203994225DC7023C4F29A
:102B80000203994233D088232DE040F29F43C4F2E0
:102B9000020399421FDC40F27043C4F202039942DF
:102BA00025D040F288431EE04023C4F2020399423C
:102BB0001DD0582317E040F24043C4F2020399426B
:102BC00015D040F258430EE0A023C4F2020399420C
:102BD0000DD0B82307E040F2B843C4F20203994293
:102BE00005D040F2A043C4F2020399426ED1914253
:102BF0004FF0040280F8352010DC6F20C4F2020090
:102C0000814220DC3F20C4F20200814236DC1020E9
:102C1000C4F20200814253D028204EE040F26F40BF
:102C2000C4F2020081421ADC40F23F40C4F20200CA
:102C300081422ADC40F21040C4F2020081423FD0BF
:102C400040F2284039E09F20C4F20200814225DC96
:102C50007020C4F20200814232D088202DE040F280
:102C60009F40C4F2020081421FDC40F27040C4F277
:102C70000200814224D040F288401EE04020C4F28D
:102C8000020081421CD0582017E040F24040C4F2BC
:102C90000200814214D040F258400EE0A020C4F25D
:102CA000020081420CD0B82007E040F2B840C4F2E4
:102CB0000200814204D040F2A040C4F202008142EE
:102CC000086820F001000860002080BD0A6822F03A
:102CD0000E020A6045F25742C5F6020291420A68A6
:102CE00022F001020A600EDC45F22F42C5F6020214
:102CF000914217DC45F20842C5F60202914226D005
:102D000045F21C421FE045F27F42C5F602029142A5
:102D100011DC45F25842C5F60202914217D045F245
:102D20006C4210E045F23042C5F6020291420ED0EC
:102D300045F2444207E045F29442C5F60202914250
:102D400005D045F28042C5F6020291421AD1D0E97F
:102D5000181CD0E916E30A6822F480720A6003F0B6
:102D60001F01012202FA01F1CEF80410816ECCF8A5
:102D70000410C16E31B10A6822F480720A60D0E991
:102D80001C124A60012180F83510026D002180F884
:102D900034100AB190470021084680BD00000000B1
:102DA000406D7047000000002DE9F04381B0002124
:102DB000009140F204010446C2F2000148F2B5124B
:102DC000C1F64E32A56D096840F26F490068C4F241
:102DD0000209A1FB021848452E682A6815DC9F21CC
:102DE000C4F2020188422BDC5721C4F2020188425E
:102DF0004FDC1021C4F20201884278D02821C4F2AD
:102E00000201884273D040216CE045F22F41C5F6A3
:102E10000201884227DC40F2B741C4F20201884235
:102E200043DC40F27041C4F2020188425FD040F2BC
:102E30008841C4F20201884259D040F2A04151E0D9
:102E400040F22741C4F2020188423DDCA021C4F2D5
:102E5000020188424BD0B821C4F20201884246D018
:102E600040F210413EE045F26B41C5F60201884256
:102E700075DC45F23041C5F60201884200F08280DF
:102E800045F24441C5F6020188427BD045F25841E3
:102E900073E05821C4F20201884228D07021C4F2A4
:102EA0000201884223D088211CE040F2B841C4F2DC
:102EB000020188421BD045F20841C5F60201884252
:102EC00060D045F21C4158E040F22841C4F20201B2
:102ED00088420CD040F24041C4F20201884206D040
:102EE00040F25841C4F20201884240F05884E16D3A
:102EF000082201F01F018A40324200F0168140F2A0
:102F00000F43C4F2020398424FF0040313DC6F270F
:102F1000C4F20207B84200F391803F27C4F20207CF
:102F2000B84200F3D2801027C4F20207B84200F082
:102F3000F0802827E8E0484500F38C8040F23F47C6
:102F4000C4F20207B84200F3C78040F21047C4F24F
:102F50000207B84200F0DD8040F22847D4E045F295
:102F60006C41C5F6020188420CD045F28041C5F69D
:102F70000201884206D045F29441C5F6020188421A
:102F800040F00D840368E16D01F01F01042707FA8A
:102F900001F6164218BF13F004072CD1022707FAD6
:102FA00001F6164218BF13F002076AD1CA40120791
:102FB00040F1F58313F0080200F0F18340F20F4274
:102FC000C4F2020290426FF01C0200F3FF826F23F2
:102FD000C4F20203984200F331833F23C4F2020398
:102FE000984200F366831023C4F20203984200F073
:102FF000988328238FE319046E603AD4990600F170
:10300000CA8340F20F41C4F2020188426FF0080106
:1030100000F301836F22C4F20202904200F32D8379
:103020003F22C4F20202904200F38D831022C4F2C8
:103030000202904200F0AC832822A3E39F27C4F24F
:103040000207B84251DC7027C4F20207B84260D0D0
:10305000882759E040F29F47C4F20207B8424BDC90
:1030600040F27047C4F20207B84252D040F288479B
:103070004AE0D80300F1A682A16C002940F09D82AD
:103080008DE319046E6000F1B482990600F1D383D8
:1030900040F20F41C4F2020188426FF0140100F3C4
:1030A0000F836F22C4F20202904200F37B833F221F
:1030B000C4F20202904200F390831022C4F2020292
:1030C000904200F0AF832822A6E34027C4F2020713
:1030D000B8421ED0582717E040F24047C4F202071A
:1030E000B84216D040F258470EE0A027C4F20207BB
:1030F000B8420ED0B82707E040F2A047C4F202075A
:10310000B84206D040F2B847C4F20207B84218BF2E
:10311000082307681F4208D0036823F004030360F4
:10312000AA60626D42F00102626501228A40324269
:103130006FD040F20F43C4F20203984210DC6F23B9
:10314000C4F2020398421CDC3F23C4F202039842FB
:1031500032DC1023C4F20203984251D028234AE003
:1031600048451ADC40F23F43C4F2020398422ADC8D
:1031700040F21043C4F20203984241D040F2284387
:1031800039E09F23C4F20203984225DC7023C4F285
:103190000203984234D088232DE040F29F43C4F2CA
:1031A000020398421FDC40F27043C4F202039842CB
:1031B00026D040F288431EE04023C4F20203984226
:1031C0001ED0582317E040F24043C4F20203984255
:1031D00016D040F258430EE0A023C4F202039842F6
:1031E0000ED0B82307E040F2B843C4F2020398427D
:1031F00006D040F2A043C4F20203984240F0FF819F
:10320000436903F0800323B1AA60626D42F00202B9
:10321000626504228A4032426FD040F20F43C4F20A
:103220000203984210DC6F23C4F2020398421CDCB4
:103230003F23C4F20203984232DC1023C4F202039B
:10324000984251D028234AE048451ADC40F23F43D7
:10325000C4F2020398422ADC40F21043C4F2020393
:10326000984241D040F2284339E09F23C4F2020340
:10327000984225DC7023C4F20203984234D088239C
:103280002DE040F29F43C4F2020398421FDC40F25B
:103290007043C4F20203984226D040F288431EE0F5
:1032A0004023C4F2020398421ED0582317E040F294
:1032B0004043C4F20203984216D040F258430EE055
:1032C000A023C4F2020398420ED0B82307E040F2D4
:1032D000B843C4F20203984206D040F2A043C4F2BD
:1032E0000203984240F09181036803F0020323B186
:1032F000AA60626D42F004026265102202FA01F1D6
:1033000031427DD040F20F42C4F2020290424FF0AF
:10331000080210DC6F23C4F2020398421CDC3F2336
:10332000C4F20203984232DC1023C4F20203984232
:1033300051D028234AE048451ADC40F23F43C4F20A
:10334000020398422ADC40F21043C4F2020398427E
:1033500041D040F2284339E09F23C4F2020398424F
:1033600025DC7023C4F20203984234D088232DE078
:1033700040F29F43C4F2020398421FDC40F27043C4
:10338000C4F20203984226D040F288431EE0402354
:10339000C4F2020398421ED0582317E040F2404383
:1033A000C4F20203984216D040F258430EE0A02324
:1033B000C4F2020398420ED0B82307E040F2A043C3
:1033C000C4F20203984206D040F2B843C4F20203AA
:1033D000984218BF04220368134211D0A960016803
:1033E0004903016806D4C90506D4016821F0080123
:1033F000016001E0080352D4216C09B120468847DE
:10340000E06D00F01F01202000FA01F2324200F0CE
:10341000AB8040F20F432068C4F2020398424FF0A1
:10342000100310DC6F27C4F20207B8421CDC3F27F0
:10343000C4F20207B84236DC1027C4F20207B842D1
:1034400055D028274EE048451ADC40F23F47C4F2E9
:103450000207B8422EDC40F21047C4F20207B8421D
:1034600045D040F228473DE09F27C4F20207B8420A
:1034700029DC7027C4F20207B84238D0882731E02F
:1034800040F29F47C4F20207B84223DC40F2704783
:10349000C4F20207B8422AD040F2884722E0A16C69
:1034A0000029ABD1ACE74027C4F20207B8421ED0D6
:1034B000582717E040F24047C4F20207B84216D03E
:1034C00040F258470EE0A027C4F20207B8420ED0DF
:1034D000B82707E040F2A047C4F20207B84206D07E
:1034E00040F2B847C4F20207B84218BF0223076887
:1034F0001F4239D0AA6094F83520042A02681BD1F3
:1035000022F016020260426922F080024261226CBF
:103510000AB9A26C1AB1026822F0080202603F20C8
:103520008840A860012084F83500216D0020002922
:1035300084F8340041D132E1510301680CD4C9054B
:103540000ED4016821F010010160012084F83500DB
:10355000002084F8340003E0080301D4616C00E02B
:10356000E16B09B120468847606D002800F01781A3
:10357000606DC0071DD0042084F8350020684FEA34
:103580009821026822F00102026000BF009A013215
:1035900000928A4202D80268D207F7D10068C007B9
:1035A0004FF0030008BF012084F83500002084F8A4
:1035B0003400E16C002900F0F280204601B0BDE843
:1035C000F0430847216C0029F7D1E8E0484541DC89
:1035D00040F23F43C4F20203984200F3848040F279
:1035E0001043C4F20203984200F09B8040F228434B
:1035F00091E0D8033DD4616C0029DED1CFE00368AF
:103600000023002B7FF400AE03E603680023002BA9
:103610007FF46EAE71E648453CDC40F23F42C4F2B6
:103620000202904200F3968040F21042C4F202027D
:10363000904200F0AD8040F22842A3E09F23C4F204
:103640000203984258DC7023C4F20203984268D007
:10365000882360E040F29F43C4F20203984252DCA8
:1036600040F27043C4F2020398425AD040F28843B9
:1036700051E0E16B0029A0D191E09F22C4F2020247
:10368000904270DC7022C4F20202904200F080800E
:10369000882277E040F29F42C4F20202904269DC45
:1036A00040F27042C4F20202904271D040F288426D
:1036B00068E04023C4F20203984232D058232AE043
:1036C00048457BDC40F23F42C4F20202904200F3E4
:1036D0008B8040F21042C4F20202904200F0A280BD
:1036E00040F2284298E040F24043C4F2020398427C
:1036F00017D040F258430EE0A023C4F202039842D0
:103700000FD0B82307E040F2A043C4F2020398426E
:1037100007D040F2B843C4F20203984218BF6FF0DA
:103720000E0203681A400260012000FA01F169608C
:10373000606584F835000020E16C84F834000029CD
:103740007FF43BAF2BE04022C4F2020290421FD034
:10375000582217E040F24042C4F20202904217D0D1
:1037600040F258420EE0A022C4F2020290420FD072
:10377000B82207E040F2A042C4F20202904207D011
:1037800040F2B842C4F20202904218BF6FF0040146
:10379000026811400160216C00297FF40EAF01B076
:1037A000BDE8F0839F22C4F20202904225DC702221
:1037B000C4F20202904235D088222DE040F29F42AE
:1037C000C4F2020290421FDC40F27042C4F20202D4
:1037D000904227D040F288421EE04022C4F202020A
:1037E00090421FD0582217E040F24042C4F2020239
:1037F000904217D040F258420EE0A022C4F20202DA
:1038000090420FD0B82207E040F2A042C4F2020278
:10381000904207D040F2B842C4F20202904218BF70
:103820006FF00A01026811400160012084F8350040
:10383000002084F83400E16B00297FF4BEAEAEE7CF
:103840002DE9F041044601F06BFCECB140F26F4809
:1038500005462068C4F20208404518DC9F21C4F2E6
:10386000020188422EDC5721C4F20201884254DC56
:103870001021C4F2020188427ED02821C4F2020144
:10388000884279D0402172E00120BDE8F08145F204
:103890002F41C5F60201884227DC40F2B741C4F24D
:1038A0000201884245DC40F27041C4F202018842C4
:1038B00062D040F28841C4F2020188425CD040F2FA
:1038C000A04154E040F22741C4F20201884240DCAA
:1038D000A021C4F2020188424ED0B821C4F20201F4
:1038E000884249D040F2104141E045F26B41C5F6B3
:1038F0000201884200F3B88045F23041C5F602016A
:10390000884200F0C38045F24441C5F60201884276
:1039100000F0BC8045F25841B4E05821C4F20201E5
:10392000884229D07021C4F20201884224D0882123
:103930001DE040F2B841C4F2020188421CD045F2B9
:103940000841C5F60201884200F0A08045F21C4102
:1039500098E040F22841C4F2020188420CD040F2C3
:103960004041C4F20201884206D040F25841C4F2FC
:103970000201884240F0DE80022184F835100021E7
:1039800084F83410016821F00101016020680168A9
:10399000C9070CD001F0C4FB401B0628F6D3202039
:1039A0006065032084F835000120BDE8F08148F20D
:1039B0003F0204F108070168CFF610621140666902
:1039C0008CCF1143D4F818C01943E3693943276AEF
:1039D0000E43616A3343042943EA070343EA0C03B5
:1039E00003D1D4E90B7637433B436568A5F129063B
:1039F000292E00F2A1800127DFE806F01515151524
:103A000015159E9E9E9E9E9E9E9E9E9E9E9E9E9EE8
:103A10009E9E151515159E9E9E9E15159E9E9E9EFC
:103A20009E9E15151515002F18BF43F48013042909
:103A30000360426922F0070241EA020140F09080EF
:103A4000D4E90A53002B41EA050100F08980BCF556
:103A5000005F5FD0BCF1000F68D1022D74D0012D42
:103A60005ED0002D70D072E045F26C41C5F60201C7
:103A700088420BD045F28041C5F60201884205D04C
:103A800045F29441C5F60201884253D104F1080E73
:103A9000022184F83510002184F834100168A369EC
:103AA0009EE80450A2F18005E769B5FA85F56669DC
:103AB0006D09402A4FEA853543EA07026FF310117A
:103AC00042EA060208BF102541EADC0142EA0E0282
:103AD0002943236A41EAD2014AF6F832CAF2FD725A
:103AE0004CF6CD470244CCF6CC4741EA1311A2FB79
:103AF000072301606FF0030000EA9300E0652046B1
:103B0000FDF756FAE16D012201F01F0102FA01F101
:103B1000416030E0032D1AD8DFE805F00A160A02EA
:103B2000A3F1C072B2FA82F2520911E0032D0AD257
:103B300001220DE0402033E725F00302743AB2FA87
:103B400082F257096FE702D1C3F3006200E000225E
:103B500032B140206065012084F83500BDE8F08175
:103B600041612046FDF724FAE16D3F2201F01F017B
:103B700002FA01F181602068404519DC9F21C4F2FE
:103B80000201884231DC5721C4F20201884256DC2E
:103B90001021C4F20201884200F092802821C4F270
:103BA0000201884200F08C804021C4F2020184E0CE
:103BB00045F22F41C5F6020188422BDC40F2B741A5
:103BC000C4F20201884248DC40F27041C4F20201B2
:103BD000884275D040F28841C4F2020188426FD019
:103BE00040F2A041C4F2020167E040F22741C4F272
:103BF0000201884240DCA021C4F2020188425FD069
:103C0000B821C4F2020188425AD040F21041C4F2F5
:103C1000020152E045F26B41C5F6020188423CDCEC
:103C200045F23041C5F60201884249D045F244418F
:103C3000C5F60201884243D045F258413BE0582185
:103C4000C4F2020188423BD07021C4F202018842D2
:103C500036D08821C4F202012FE040F2B841C4F20C
:103C6000020188422CD045F20841C5F60201884283
:103C700026D045F21C411EE040F22841C4F2020168
:103C800088421DD040F24041C4F20201884217D060
:103C900040F25841C4F202010FE045F26C41C5F612
:103CA000020188420CD045F29441C5F602018842D7
:103CB00006D045F28041C5F60201884240F0D0802E
:103CC00045F2574C45F6FC01C5F6020CC5F602015B
:103CD00060450EDC45F22F43C5F60203984217DC1F
:103CE00045F20843C5F60203984226D045F21C432C
:103CF0001FE045F27F43C5F60203984211DC45F20E
:103D00005843C5F60203984217D045F26C4310E0C1
:103D100045F23043C5F6020398420ED045F24443C3
:103D200007E045F29443C5F60203984205D045F2F8
:103D30008043C5F60203984250D100F0FC034CF6D4
:103D4000CD47083BCCF6CC47A3FB0737A1F1FC05D8
:103D5000A1F17C063B0905EB83022266A26803F011
:103D60001F030127802A666607FA03F2A26601D1C3
:103D7000002262606268A56ED4E91876D3B2013A77
:103D8000072A3B60756015D85E1E072E62D8604515
:103D900001F1440213DC45F22F47C5F60207B84291
:103DA0003CDC45F20847C5F60207B8424BD045F265
:103DB0001C4744E000206067C4E91B0050E045F266
:103DC0007F47C5F60207B84231DC45F25847C5F6D1
:103DD0000207B84237D045F26C4730E000F0F803F4
:103DE0004AF6AB27103BCAF6AA27A3FB073740F2D7
:103DF0000F43C4F2020308253E09984203F1AA02C8
:103E0000334688BF05EB171340F600059042C4F215
:103E1000020528BF334605F180069CE745F230478E
:103E2000C5F60207B8420ED045F2444707E045F216
:103E30008047C5F60207B84205D045F29447C5F65B
:103E40000207B84213D101EB8300E066012022672C
:103E5000B040606704F16C02002307CA03604A6047
:103E600000206065012184F83510BDE8F08140F63E
:103E70000000C4F2020000F1FC0100F5A072E2E7CC
:103E8000B0B5E0B3054690F83400012801D1022016
:103E9000B0BD012085F8340095F83500012828D1FF
:103EA000022085F83500002068652868046824F041
:103EB000010404602846FDF707F940F20F42286824
:103EC000C4F2020240F26F419042C4F2020118DCD7
:103ED0006F23C4F20203984224DC3F23C4F202039E
:103EE00098423ADC1023C4F20203984259D02823A6
:103EF00052E04FF400606865002085F8340001202E
:103F0000B0BD88421ADC40F23F43C4F2020398423B
:103F10002ADC40F21043C4F20203984241D040F23E
:103F2000284339E09F23C4F20203984225DC702322
:103F3000C4F20203984234D088232DE040F29F431C
:103F4000C4F2020398421FDC40F27043C4F2020341
:103F5000984226D040F288431EE04023C4F2020378
:103F600098421ED0582317E040F24043C4F20203A7
:103F7000984216D040F258430EE0A023C4F2020348
:103F800098420ED0B82307E040F2B843C4F20203CF
:103F9000984206D040F2A043C4F20203984240F097
:103FA000238103680B2464F3440303602B6C1BB16F
:103FB0000823046823430360884219DC9F23C4F26A
:103FC0000203984231DC5723C4F20203984256DCC4
:103FD0001023C4F20203984200F091802823C4F217
:103FE0000203984200F08B804023C4F2020384E075
:103FF00045F22F43C5F6020398422BDC40F2B7434B
:10400000C4F20203984248DC40F27043C4F2020357
:10401000984274D040F28843C4F2020398426ED0B2
:1040200040F2A043C4F2020367E040F22743C4F227
:104030000203984240DCA023C4F2020398425ED0FF
:10404000B823C4F20203984259D040F21043C4F29C
:10405000020352E045F26B43C5F6020398423CDC92
:1040600045F23043C5F60203984248D045F2444336
:10407000C5F60203984242D045F258433BE058232C
:10408000C4F2020398423AD07023C4F20203984269
:1040900035D08823C4F202032FE040F2B843C4F2C3
:1040A000020398422BD045F20843C5F6020398421A
:1040B00025D045F21C431EE040F22843C4F202031F
:1040C00098421CD040F24043C4F20203984216D0FA
:1040D00040F25843C4F202030FE045F26C43C5F6C8
:1040E000020398420BD045F29443C5F6020398426E
:1040F00005D045F28043C5F6020398426ED12B6E7F
:104100001C68E40303D51C6844F480741C60EB6EE7
:104110001BB11D6845F480751D60904210DC6F2155
:10412000C4F2020188421CDC3F21C4F20201884231
:1041300032DC1021C4F2020188424FD028214AE02B
:1041400088421ADC40F23F41C4F2020188422ADC74
:1041500040F21041C4F2020188423FD040F22841AF
:1041600039E09F21C4F20201884225DC7021C4F2AB
:104170000201884232D088212DE040F29F41C4F2F2
:10418000020188421FDC40F27041C4F20201884201
:1041900024D040F288411EE04021C4F2020188424E
:1041A0001CD0582117E040F24041C4F2020188427D
:1041B00014D040F258410EE0A021C4F2020188421E
:1041C0000CD0B82107E040F2B841C4F202018842A5
:1041D00004D040F2A041C4F202018842016841F0DB
:1041E000010101600020B0BD0368052464F34303AE
:1041F00003602B6C002B3FF4DFAE0423D9E60000F4
:10420000B0B5044600F08CFF40F240010546C2F212
:104210000041621C097818BF0C4400BF00F080FF09
:10422000401BA042FAD3B0BD90F89830013B012B5F
:104230000BD80068836D0B420CD0836D0B408B4212
:104240000CD1C36D43F0020309E000F19C01012091
:10425000022221E0C36D43F0010300E00323C365A4
:104260008B0504D5D0F8E0301343C0F8E0304B059F
:1042700004D5D0F8E4301A43C0F8E4204FF6FF72BA
:10428000436DC3F6CF720A401A4342658A0F4AF65D
:1042900014010020C4F200010B681A430A60704741
:1042A000B0B5044690F8980002281AD12068D0F8DA
:1042B000C03013F07C5F19D0D0F8C4309B021AD400
:1042C000D0F8C400C0F3044520462B46FDF7D8F8CB
:1042D00020680121A940C0F8D0100020C4F8941033
:1042E000B0BDD4F89C0040F0080008E0D4F89C0071
:1042F00040F0200003E0D4F89C0040F40070C4F8C3
:104300009C000120B0BD00007047000000000000CC
:1043100080B590F89820013A012A0AD80A68002A44
:10432000CA680ED00B69072A43EA427E16D18B6910
:1043300019E0D0F89C1041F00201C0F89C10012057
:1043400080BD072A18D10A69D1F81CC012048B69F4
:1043500042EA0C221A4342F0605217E0D1F808C03A
:104360004B6943EA8C73006F496800EBC10240F867
:1043700031E00020536080BD8B68D1F810C09B07EE
:1043800043EAC2624B6942EA0C421A434968C06E72
:1043900040F82120002080BD90F898C0BCF1010FAA
:1043A0000DD19200006842EA0111DDF800C041EA37
:1043B000430141EA0C01C0F8801000207047D0F89A
:1043C0009C1041F00401C0F89C10012070470000CF
:1043D000704700000000000070470000000000006F
:1043E000B422402908BFA4220068805800F07F0052
:1043F000704700000000000070B590F89850022D42
:1044000011D1402914D10468D4F8A05015F4FE0F3E
:104410002BD0D4F8A4506D062CD0D4F8A450ED01C4
:1044200030D4002531E0D0F89C1041F0080125E09F
:1044300041290FD10468D4F8B05015F4FE0F14D000
:10444000D4F8B4506D0615D0D4F8B450ED0126D48C
:10445000002527E0056D8D4207D900F17C04D0F8D6
:1044600054E04FF0000C0D4626E0D0F89C1041F0CF
:10447000200103E0D0F89C1041F48071C0F89C103A
:10448000012070BDD4F8A050ED0FD4F8A440C4F3BF
:10449000052404EB050E00F17404456C0BE0D4F820
:1044A000B050ED0FD4F8B440C4F3052404EB050E6E
:1044B00000F17804C56CF44605FB0EF6246854F848
:1044C000265015F08045556054F826E02EF06045E2
:1044D00008BFCEF38A4504EB860E156054F82650CB
:1044E00005F00055956054F8264004F0004414612E
:1044F000BEF80440D461BEF8064014F00F04D46046
:10450000DEF8044004F480145461DEF8044004F43E
:10451000001494619EF8074004F07F041462DEF8F2
:1045200004404FEAD47454620ED00EF108054FF2E5
:10453000043E0024C0F6000E2E5D1E550134D668E0
:104540001EF80660B442F7D3402904D10068C0F8D1
:10455000A8C0002070BD412904D10068C0F8B8C0CF
:10456000002070BD1F2907D80068012202FA01F15E
:10457000C0F89810002070BD006801F01F010122F2
:1045800002FA01F1C0F89C10002070BD000000008C
:1045900070470000000000002DE9F04F89B004468C
:1045A0004AF61000C4F2000001684AF61400C4F292
:1045B00000000268206802EA0108056DD0F85490F6
:1045C000036D0293436D0193036D0493436D039355
:1045D000036D0893436D0793036D0693436D059335
:1045E000D0F854A0D0F850B05FEACA530ED51BF4EF
:1045F00080710BD04FF4807101654AF610010020E4
:10460000C4F2000108602046FFF7C2FF05EA090670
:104610004AF610095FEA4A50C4F200094FEA887767
:1046200011D51BF480600ED02068D0F8DC10D0F8D3
:10463000E42011404FF4806202650020C9F80000B8
:10464000204600F085FCDDE9011000EA010506F4D2
:10465000704657B120680021016508F00300C9F8D1
:10466000000020463946FFF74FFEDDE9031000EA5F
:10467000010705F00F0546B12068314606650020A8
:10468000C9F80000204600F06BFC07F0F00645B1C9
:104690002068294605650020C9F80000204600F082
:1046A0006BFB46B12068314606650020C9F8000062
:1046B000204600F0B9FB5FEA0A500CD51BF40060FD
:1046C00009D020684FF4006101650020C9F800009E
:1046D000204600F049FC5FEA8A5011D51BF40070B7
:1046E0000ED02068D0F8D810D0F8E02011404FF458
:1046F000007202650020C9F80000204600F02CFC82
:104700005FEA0A300CD51BF4002009D020684FF472
:10471000002101650020C9F80000204600F028FBB8
:104720005FEACA300CD51BF4803009D020684FF402
:10473000803101650020C9F80000204600F004FC2B
:104740005FEA4A30DDE9051000EA01050CD51BF4EB
:10475000802009D020684FF4802101650020C9F82D
:104760000000204600F0ECFB5FEA8A30DDE907102C
:1047700000EA010005F060710FD51BF400320CD087
:1047800022684FF4003313650022C9F80020D4F8E2
:104790009C2042F08002C4F89C2000F0715539B191
:1047A000206801650020C9F800002046FFF714FECC
:1047B0004DB1206805650020C9F80000D4F89C00C0
:1047C0002843C4F89C002068A9F50161884209D0FB
:1047D000D4F89C00002867D0204609B0BDE8F04F0F
:1047E000FFF7F6BD606881688907F1D0016A426A07
:1047F000036A476A114003EA070202F03005D0F865
:104800002080D0F82490D0F820B0D0F824A0026AFC
:10481000089211F00F01426A0792466A026A0692F4
:1048200003D00162204600F07FFB08EA09072DB1A2
:10483000606829460562204600F07EFB70060BEAA0
:104840000A0607F4C0750ED5069810F040000AD08D
:1048500060684023C16BC26B090C02F03F02036227
:10486000204600F065FBDDE9071000EA010706F4C9
:10487000FC462DB1606829460562204600F050FBD9
:1048800007F4F02036B161680E62D4F89C10314311
:10489000C4F89C1000289BD061680862D4F89C1072
:1048A0000843C4F89C0093E709B0BDE8F08F00000E
:1048B0002DE9F04F85B0002840D04AF200080446A8
:1048C000C4F200080068404502D108F580706060BD
:1048D00094F8980028B9002084F89900204600F048
:1048E000CBF92068816921F01001816100F018FC8A
:1048F000054600BF20688169090705D500F010FC56
:10490000401B0B28F6D310E0816941F00101816161
:1049100000F006FC054600BF20688169C90711D177
:1049200000F0FEFB401B0B28F6D30120D4F89C10AE
:104930000843C4F89C00032084F89800012005B0C7
:10494000BDE8F08F816941F002018161217C8269BB
:1049500022F04002012918BF40328261617C8269E5
:1049600022F48042012908BF02F580428261A17CC5
:10497000826922F48052012918BF02F580528261B7
:10498000816921F44073D4E902120B438361836986
:1049900023F0A4038361036923F0100303619AB138
:1049A000012A0DD0022A09D08369032A43F080032B
:1049B0008361036943F01002026105D1202200E007
:1049C000042283691A438261D4E90572E369561EA1
:1049D0006FF0FF02256A02EB0323B1F5407F43EA43
:1049E0004663A5F1010646EA030640F20003CFF64E
:1049F000FF7303EB074746EA0701C16110D1D4E911
:104A00000B65D4E90917013F02EB06226FF00F0690
:104A10003A4306EB05173A4303EB01411143C160EA
:104A2000236E2BB1616ED0F8C0201143C0F8C010C6
:104A3000E16DCDE90313D9424FF27821C0F60001B0
:104A400009D0D0F8C820A36E22F0070251F8233015
:104A50001A43C0F8C820D4F840A0BAF1000F09D01A
:104A6000D0F8BC20636C22F0070251F823301A43BF
:104A7000C0F8BC20A76C57B1D0F8BC20E36C22F082
:104A8000700251F8233042EA0312C0F8BC20D4F877
:104A900050C0BCF1000F0AD0D0F8BC20636D22F4E6
:104AA000E06251F8231042EA0121C0F8BC104045F1
:104AB00004D161688A6822F003028A600021C4F888
:104AC0009410C4F89C10012184F898104FF6FC72E1
:104AD000D0F88410D4F83C9021EA0203656CD4E944
:104AE0000D120292019543EA8103C0F88430D0F898
:104AF000843023F47F0343EA0243C0F88430531820
:104B0000D0F888606FF38F0646EA8306C0F88860A5
:104B1000D0F8886003EB490326F4FE0646EA09460E
:104B2000C0F88860D0F8A0606FF38F0646EA83066D
:104B3000C0F8A060D0F8A06005FB0A3326F4FE069A
:104B400046EA0A46C0F8A060D0F8B0606FF38F065E
:104B500046EA8306C0F8B060D0F8B06026F4FE06DE
:104B600046EA0746C0F8B060E66CD0F8AC506FF388
:104B70008F0506FB07337E4345EA8305C0F8AC503A
:104B8000D4F8548008FB0C35D0F8F0306FF38F0365
:104B900008FB0CFC43EA8503C0F8F030D0F8F0E0E5
:104BA000A36D2EF47C1242EA0342C0F8F02005EB1C
:104BB0004302D0F8C0506FF38F0545EA8202C0F877
:104BC000C020D0F8C020DDF80CB022F47C1242EAFC
:104BD0000B42C0F8C020019AD0F8C05025F07C5597
:104BE00002FB0AFE4AF20002C4F20002DDF810A045
:104BF00002EB8101029A01F5406145EA0A6501EB89
:104C00008207C0F8C05007EBC902A56E02EB8E0008
:104C1000626700EB86060BFB05F2276706EB8C0745
:104C2000C4E91E060AFB05F007EBC30303EB82028F
:104C3000C4F884304DF2FC33E16602EB8000C4F22C
:104C400000039842C4F88070C4F88820C4F890002B
:104C500001D920206AE6814209D2002041F8040BE4
:104C6000D4F890209142F9D305B0BDE8F08F002030
:104C700005B0BDE8F08F000010B586B04DF20042DF
:104C80000068C4F20002002190420591CDE90311B1
:104C9000CDE901112DD04AF20001C4F20001884291
:104CA00062D140F2581144F2E040C2F20001C5F670
:104CB00002000A68002A02F101020A6008D1C168F4
:104CC00041F48071C160C16801F480710091009964
:104CD0000168132441F0010101600068092100F01E
:104CE00001000090009800204FF4C052C5F6020069
:104CF00028E040F2581144F2E040C2F20001C5F64B
:104D000002000A68002A02F101020A6008D1C168A3
:104D100041F48071C160C16801F480710091009913
:104D200001689F2441F0080101600068052100F03E
:104D30000800009000980020C5F602004FF4405291
:104D400000F54060059101A9019202220292002221
:104D5000CDE9032200F00CF900210022204600F0EA
:104D6000AFFB204600F09CFB06B010BD0000000029
:104D70007047000000000000F0B583B040F2C001B1
:104D8000C2F200018A6E01328A6642F2A802002154
:104D9000C2F200028DF808109042019100912BD1CF
:104DA00040F2580442F2A800C2F20044C2F20000ED
:104DB0006B4640212246FFF71FFB20787F30C1B2AF
:104DC000022919D840B24FF2C421C0F600010FA247
:104DD00011A36D4651F8204052F8206053F820701E
:104DE0002046294609F0D8FA20462946FCF7CCFB94
:104DF000002030700120387040F258002821C2F2A3
:104E00000040FBF7BBFA03B0F0BD00BF5200002426
:104E100053000024540000249D1B00209E1B0020F2
:104E20009F1B002000000000B0B584B040F2C0011C
:104E3000C2F200018A6E01328A6642F248120021F3
:104E4000C2F200028DF80C109042029101912ED115
:104E500040F2601442F24815C2F20004C2F20005AA
:104E600001AB412128462246FFF7C6FA42F2A800CC
:104E70004021C2F20000FFF7B3FA41212846FFF7B4
:104E8000AFFA20787F30C1B2022910D841B20CA00D
:104E90000EA211A350F8210052F8214053F82150DE
:104EA00001A9FCF7B9FC002020700120287040F215
:104EB00060102821C2F20000FBF760FA04B0B0BD18
:104EC0007825002480250024C42300204B000024E2
:104ED0004C0000244D000024961B0020971B00204E
:104EE000981B00200000000090F8981001290CD1B8
:104EF000022180F8981001688A6922F001028A6113
:104F00000021C0F89C1008467047D0F89C1041F072
:104F10000401C0F89C100120704700000000000050
:104F20007047000000000000704700000000000013
:104F30007047000000000000704700000000000003
:104F400070470000000000007047000000000000F3
:104F500070470000000000007047000000000000E3
:104F600070470000000000007047000000000000D3
:104F70002DE9F04F82B00C68002C00F0C58000F1E4
:104F8000264242F2004302F1FF72C5F602030A27ED
:104F900098424FEAB22540F2040E08BF0927082DB7
:104FA000C5F6000E38BF4FEAB22700224FF0030CBF
:104FB00000970026002709E001370C6834FA07F350
:104FC00006F1020602F1040200F09E80012303FABA
:104FD00007FA14EA0A09EFD0D1F804B00BF0030481
:104FE000A4F10108B8F1010F11D8D0F808800CFA2B
:104FF00006F3CD6828EA0303B5402B438360CBF367
:105000000015436823EA0A03BD402B434360032C89
:105010001DD0C3680CFA06F5AB438D68B540022C71
:1050200043EA0503C36012D16FF0030302F01C05CD
:1050300003EA57030F24034404FA05FAD3F8208047
:105040000C6928EA0A08AC4044EA08041C620368B8
:105050000CFA06F44D68A34305F0030415F4403F31
:1050600004FA06F443EA04030360A5D044F2F444CE
:1050700040F2084AC5F60204C5F6000A0F25236867
:1050800043F002032360236803F00203019327F037
:105090000303019C02F00C0453F80A80A54028EA9F
:1050A0000508009D05FA04F444EA080443F80A40A0
:1050B0004FF0B04ADAF800804C6848EA0905E3028C
:1050C00058BF28EA0905A302CAF80050DEF800809C
:1050D00048EA090558BF28EA0905A303CEF800509D
:1050E000DEF8808048EA090558BF28EA0905E4038C
:1050F000CEF88050DEF87C3043EA090558BF23EA39
:105100000905CEF87C5057E702B0BDE8F08F0000EB
:10511000002A08BF090481617047000000000000F8
:1051200042F24040C2F200400068704700000000B8
:1051300090F84120202A03D190F84020012A01D183
:1051400002207047242280F841200268136823F06F
:1051500001031360136823F4805313601368194329
:105160001160116841F001011160202180F84110A7
:10517000002180F840100846704700000000000041
:1051800090F84120202A03D190F84020012A01D133
:1051900002207047242280F841200268136823F01F
:1051A00001031360136823F4706343EA0121116063
:1051B000116841F001011160202180F841100021A7
:1051C00080F84010084670470268436B002B9169D5
:1051D000126808BF7047184700284ED010B5044623
:1051E00090F8410028B9002084F84000204600F0E3
:1051F00047F8242084F8410094E80310E36821F084
:1052000070610268012B22F00102026001614FF41B
:105210000441826808BF4FF4004122F400428260DA
:1052200041EA0C0181604168022B21F4006104F124
:10523000100308BF01F500614160416841F0007151
:1052400041F400414160C16821F40041C1600ECBCE
:10525000114341EA0321C160D4E9071211430160FF
:10526000016841F00101016000206064202184F8A0
:105270004110206384F8420010BD012070470000F7
:105280002DE9F043B5B0044602A8B8210025CDE9C8
:105290003355CDE931553095FBF770F845F20041B3
:1052A0002068C4F20001884202D035B0BDE8F08326
:1052B0000820029002A80395229501F041FC08B154
:1052C000FCF7B6F844F2E04540F24008C5F60205A6
:1052D00030A90026C4F20208286840F002002860C5
:1052E000286800F00200019001984FF4C0703090DF
:1052F000122031900420349040F20040C5F60200A4
:1053000032963396FFF734FEA8684FF4806940F474
:105310000010A860A86840F65C35C2F2004500F4B1
:10532000001001904FF4403701982120C5E9010693
:105330002846C5F80080EE60C5E90496C5E9066612
:10534000C5E90876FEF77CFA08B1FCF771F8E56369
:1053500008F11800AC6341F6C865C2F2000505F11A
:105360000801286022206860402081E84102284628
:105370006E62C5E90566C5E90767FEF761FA08B11F
:10538000FCF756F81F2000210022A563AC6300F053
:1053900097F81F2000F084F835B0BDE8F0830000D6
:1053A00040F2400042F24041C2F20040C2F20041ED
:1053B00000780A6810440860704700000000000090
:1053C00080B5032000F0ACF802F02EFA44F2184148
:1053D0004FF2DC23C5F60201C0F600030A68096833
:1053E00001F00F01C2F30322595C9A5C01F01F0126
:1053F00002F01F02D04040F22402C2F2004220FA22
:1054000001F1116040F20401C2F2000108600F20B6
:1054100000F00AF800281CBF012080BD00F030F821
:10542000002080BD00000000B0B540F24001C2F293
:105430000041097801B3044640F20400C2F20000C2
:105440004FF47A72B2FBF1F10068B0FBF1F002F0B8
:1054500023FD0F2C4FF001050CD858B94FF0FF3049
:1054600000222146002500F02BF840F25410C2F231
:10547000000004602846B0BD0120B0BD000000005F
:1054800081B044F2F440C5F60200016841F0020127
:105490000160006800F002000090009801B07047C1
:1054A000002848BF704700F01F01012202FA01F1F5
:1054B0004EF200124009CEF2000242F8201070476E
:1054C00070B54EF60C5C4FF0FF36CEF2000C00F1DA
:1054D000604505F56445DCF80030C3F3022E8EF01C
:1054E0000703042B28BF0423BEF1030406FA03F3C9
:1054F00021EA030100F00F0338BF0024043B002819
:10550000634406FA04F048BF03F10C05A14022EA07
:10551000000008430001287070BD0000000000007A
:105520004EF60C514FF6FF03CEF200010A681A4006
:1055300060F30A2242F0806040F0FD70086070471E
:1055400001680122C0F8D824002280F8CC248869A0
:1055500040F000608861486D40F08052002042F0C9
:1055600003024A6570470000704700000000000019
:105570000268002051627047B0B5D0F800E0DEF854
:105580002400D1B1DEF82830B1F1010C00EB134357
:105590000BD05FFA8CF10EF58070002450F8045F98
:1055A00001348C4203EB1543F8D30EEB8C0043EA35
:1055B0000241C0F804110020B0BD40EA0240CEF81C
:1055C00028000020B0BD0000D0F8E00407F018BCAF
:1055D00001EBC10200EB8202D0F8E004126A07F08E
:1055E0007BBB00000000000001EBC10200EB820267
:1055F000D0F8E004D2F8602207F0C6BB000000003B
:10560000D0F8E00407F000BC10B54AB2044601F03F
:105610000F00B2F1FF3F00EBC00104EB810205DD9A
:1056200002F51571002382F8553203E002F11401EE
:105630000123537594F894240870012A01D10220A3
:1056400010BD012084F89404206808F0B9F9002006
:1056500084F8940410BD0000B0B50279044601F04E
:105660000F00904201D90120B0BD49B2B1F1FF3F16
:1056700009DD00EBC001002304EB810202F5157186
:1056800082F8553207E000EBC001012304EB8102F0
:1056900002F11401537594F8942400258D70012AA9
:1056A000087001D10220B0BD012084F89404206864
:1056B00008F016FB284684F89454B0BD00000000A2
:1056C00001F00F0101EBC10100EB8100D0F868028D
:1056D000704700000000000070B54CB2064601F0B3
:1056E0000F00B4F1FF3F00EBC00107DD06EB8104C2
:1056F000002504F5157184F8555206E006EB810C7F
:1057000001240CF114018CF815404D7808706FF3EA
:10571000DF228A60002D0B7118BF4883022B01D154
:105720000020487196F89404012801D1022070BD30
:10573000012086F89404306808F062F8002086F8AA
:10574000940470BD0000000080B501F00F0E0EEB58
:10575000CE0100EB810C0021CCE998238379CCF8B1
:1057600068128CF855120CF51571012B8CF854E267
:1057700008BFCCF8702200681A4608F0F9FA002039
:1057800080BD000000000000B0B50446007901F0C3
:105790000F05854201D90120B0BD48B2B0F1FF3FED
:1057A00009DD01EBC100002204EB800000F515715A
:1057B00080F8552207E005EBC500012204EB8000CC
:1057C00000F11401427594F8942401208870012A94
:1057D0000D7001D10220B0BD84F89404206808F057
:1057E000A7FA2DB9A179206804F29C4208F048FA82
:1057F000002084F89404B0BD10B501F00F0C012412
:105800000CEBCC0100EB810E714601F814CF4FF088
:10581000000CC1F814C090F806C04C70CA60BCF10E
:10582000010F0B6108BFCEF830200068624608F017
:105830009FFA002010BD00002DE9F04F89B00568E7
:105840008246284608F010FC10B109B0BDE8F08F80
:10585000DAF8000008F038FC0028F6D0D5F808087F
:10586000C0F30D20CAF8D404DAF8000008F02CFCCC
:10587000800705D5DAF80000416901F002014161B5
:10588000DAF8000005F5006608F01EFCC006059574
:105890003ED5DAF80000816921F0100181612C6A9F
:1058A00004F00F05C4F34340062819D0022828D17C
:1058B00047F6F07014EA000823D005EBC5004FEA64
:1058C00018140AEB800705982246D7F8601208F0F2
:1058D000FFFBD7F8600200EB1810C7F8600207E082
:1058E0000AF29C410822059808F0F2FBC4F30A145E
:1058F00005EBC5000AEB8000D0F868122144C0F81F
:105900006812DAF80000816941F010018161059D9B
:10591000DAF80000049608F0D7FB0003CDF820A0C9
:1059200040F10381DAF8000008F0AAFB002800F03B
:10593000FC8006464FF4306800244FF0000B0AF25A
:105940009C40079009E000BF0BF1010B760808F1BD
:10595000200804F1240400F0E880F007F4D05FFA96
:105960008BF9DAF80000494608F0A6FB8246C0072A
:105970006CD005EB080001218160089F386808EBB6
:105980000001036C8A68BF79012F2AD117073BD425
:10599000970658D412F0280F059D57D143F20B07F4
:1059A000C4F65477BB4202D312F4004248D1089F98
:1059B000002C07EB0402D2F8743209696FF3DF415F
:1059C000A3EB0101C2F8681240F0AD80D2F8643256
:1059D000002B00F0A380D2F860020844C2F86002F5
:1059E000A0E043F20B07C4F65477FF37BB4219D14E
:1059F000100425D49006059D01D5202088600898C4
:105A00004946FFF7F1FD21E043F20B00059DC4F686
:105A1000547083421AD312F4004017D04FF4004060
:105A2000886013E03CB90899D1F8641219B90021D3
:105A3000079A08F025F908984946FFF7D5FD04E0D4
:105A40004FF4004000E020208860059D5FEA0A7066
:105A500026D505EB08000821816043F20B01089868
:105A6000C4F654714F1E0068056C4044BD42816805
:105A700005D911F400411CBF4FF400418160089822
:105A800000F02EFCBD42059D0AD9089880790128B6
:105A900006D108980121079A006808F0F1F800BFC4
:105AA0005FEACA6016D45FEA8A701AD45FEA8A6035
:105AB00003D505EB0800202181605FEA8A40DDF80C
:105AC00020A07FF541AF05EB08004FF40051816045
:105AD0003AE700BF05EB0800102181605FEA8A7099
